{
  "_format": "hh-sol-artifact-1",
  "contractName": "RealEstateToken",
  "sourceName": "contracts/RealEstateToken.sol",
  "abi": [
    {
      "inputs": [],
      "stateMutability": "nonpayable",
      "type": "constructor"
    },
    {
      "inputs": [
        {
          "internalType": "address",
          "name": "sender",
          "type": "address"
        },
        {
          "internalType": "uint256",
          "name": "tokenId",
          "type": "uint256"
        },
        {
          "internalType": "address",
          "name": "owner",
          "type": "address"
        }
      ],
      "name": "ERC721IncorrectOwner",
      "type": "error"
    },
    {
      "inputs": [
        {
          "internalType": "address",
          "name": "operator",
          "type": "address"
        },
        {
          "internalType": "uint256",
          "name": "tokenId",
          "type": "uint256"
        }
      ],
      "name": "ERC721InsufficientApproval",
      "type": "error"
    },
    {
      "inputs": [
        {
          "internalType": "address",
          "name": "approver",
          "type": "address"
        }
      ],
      "name": "ERC721InvalidApprover",
      "type": "error"
    },
    {
      "inputs": [
        {
          "internalType": "address",
          "name": "operator",
          "type": "address"
        }
      ],
      "name": "ERC721InvalidOperator",
      "type": "error"
    },
    {
      "inputs": [
        {
          "internalType": "address",
          "name": "owner",
          "type": "address"
        }
      ],
      "name": "ERC721InvalidOwner",
      "type": "error"
    },
    {
      "inputs": [
        {
          "internalType": "address",
          "name": "receiver",
          "type": "address"
        }
      ],
      "name": "ERC721InvalidReceiver",
      "type": "error"
    },
    {
      "inputs": [
        {
          "internalType": "address",
          "name": "sender",
          "type": "address"
        }
      ],
      "name": "ERC721InvalidSender",
      "type": "error"
    },
    {
      "inputs": [
        {
          "internalType": "uint256",
          "name": "tokenId",
          "type": "uint256"
        }
      ],
      "name": "ERC721NonexistentToken",
      "type": "error"
    },
    {
      "inputs": [
        {
          "internalType": "address",
          "name": "owner",
          "type": "address"
        }
      ],
      "name": "OwnableInvalidOwner",
      "type": "error"
    },
    {
      "inputs": [
        {
          "internalType": "address",
          "name": "account",
          "type": "address"
        }
      ],
      "name": "OwnableUnauthorizedAccount",
      "type": "error"
    },
    {
      "anonymous": false,
      "inputs": [
        {
          "indexed": true,
          "internalType": "address",
          "name": "owner",
          "type": "address"
        },
        {
          "indexed": true,
          "internalType": "address",
          "name": "approved",
          "type": "address"
        },
        {
          "indexed": true,
          "internalType": "uint256",
          "name": "tokenId",
          "type": "uint256"
        }
      ],
      "name": "Approval",
      "type": "event"
    },
    {
      "anonymous": false,
      "inputs": [
        {
          "indexed": true,
          "internalType": "address",
          "name": "owner",
          "type": "address"
        },
        {
          "indexed": true,
          "internalType": "address",
          "name": "operator",
          "type": "address"
        },
        {
          "indexed": false,
          "internalType": "bool",
          "name": "approved",
          "type": "bool"
        }
      ],
      "name": "ApprovalForAll",
      "type": "event"
    },
    {
      "anonymous": false,
      "inputs": [
        {
          "indexed": true,
          "internalType": "address",
          "name": "previousOwner",
          "type": "address"
        },
        {
          "indexed": true,
          "internalType": "address",
          "name": "newOwner",
          "type": "address"
        }
      ],
      "name": "OwnershipTransferred",
      "type": "event"
    },
    {
      "anonymous": false,
      "inputs": [
        {
          "indexed": false,
          "internalType": "uint256",
          "name": "tokenId",
          "type": "uint256"
        },
        {
          "indexed": false,
          "internalType": "address",
          "name": "owner",
          "type": "address"
        },
        {
          "components": [
            {
              "internalType": "string",
              "name": "streetAddress",
              "type": "string"
            },
            {
              "internalType": "uint256",
              "name": "zipCode",
              "type": "uint256"
            },
            {
              "internalType": "string",
              "name": "city",
              "type": "string"
            },
            {
              "internalType": "string",
              "name": "propertyType",
              "type": "string"
            },
            {
              "internalType": "uint256",
              "name": "areaSquareMeters",
              "type": "uint256"
            },
            {
              "internalType": "uint8",
              "name": "bedrooms",
              "type": "uint8"
            },
            {
              "internalType": "uint8",
              "name": "bathrooms",
              "type": "uint8"
            },
            {
              "internalType": "string",
              "name": "additionalDetails",
              "type": "string"
            },
            {
              "internalType": "uint256",
              "name": "price",
              "type": "uint256"
            }
          ],
          "indexed": false,
          "internalType": "struct RealEstateToken.RealEstateDetails",
          "name": "details",
          "type": "tuple"
        },
        {
          "indexed": false,
          "internalType": "string",
          "name": "tokenUri",
          "type": "string"
        }
      ],
      "name": "TokenMinted",
      "type": "event"
    },
    {
      "anonymous": false,
      "inputs": [
        {
          "indexed": false,
          "internalType": "uint256",
          "name": "tokenId",
          "type": "uint256"
        },
        {
          "indexed": false,
          "internalType": "address",
          "name": "from",
          "type": "address"
        },
        {
          "indexed": false,
          "internalType": "address",
          "name": "to",
          "type": "address"
        },
        {
          "indexed": false,
          "internalType": "uint256",
          "name": "price",
          "type": "uint256"
        }
      ],
      "name": "TokenPurchased",
      "type": "event"
    },
    {
      "anonymous": false,
      "inputs": [
        {
          "indexed": false,
          "internalType": "uint256",
          "name": "tokenId",
          "type": "uint256"
        },
        {
          "indexed": false,
          "internalType": "address",
          "name": "owner",
          "type": "address"
        }
      ],
      "name": "TokenUpdated",
      "type": "event"
    },
    {
      "anonymous": false,
      "inputs": [
        {
          "indexed": true,
          "internalType": "address",
          "name": "from",
          "type": "address"
        },
        {
          "indexed": true,
          "internalType": "address",
          "name": "to",
          "type": "address"
        },
        {
          "indexed": true,
          "internalType": "uint256",
          "name": "tokenId",
          "type": "uint256"
        }
      ],
      "name": "Transfer",
      "type": "event"
    },
    {
      "inputs": [
        {
          "internalType": "address",
          "name": "to",
          "type": "address"
        },
        {
          "internalType": "uint256",
          "name": "tokenId",
          "type": "uint256"
        }
      ],
      "name": "approve",
      "outputs": [],
      "stateMutability": "nonpayable",
      "type": "function"
    },
    {
      "inputs": [
        {
          "internalType": "address",
          "name": "owner",
          "type": "address"
        }
      ],
      "name": "balanceOf",
      "outputs": [
        {
          "internalType": "uint256",
          "name": "",
          "type": "uint256"
        }
      ],
      "stateMutability": "view",
      "type": "function"
    },
    {
      "inputs": [
        {
          "internalType": "uint256",
          "name": "tokenId",
          "type": "uint256"
        }
      ],
      "name": "getApproved",
      "outputs": [
        {
          "internalType": "address",
          "name": "",
          "type": "address"
        }
      ],
      "stateMutability": "view",
      "type": "function"
    },
    {
      "inputs": [],
      "name": "getOwnerTokens",
      "outputs": [
        {
          "components": [
            {
              "internalType": "string",
              "name": "streetAddress",
              "type": "string"
            },
            {
              "internalType": "uint256",
              "name": "zipCode",
              "type": "uint256"
            },
            {
              "internalType": "string",
              "name": "city",
              "type": "string"
            },
            {
              "internalType": "string",
              "name": "propertyType",
              "type": "string"
            },
            {
              "internalType": "uint256",
              "name": "areaSquareMeters",
              "type": "uint256"
            },
            {
              "internalType": "uint8",
              "name": "bedrooms",
              "type": "uint8"
            },
            {
              "internalType": "uint8",
              "name": "bathrooms",
              "type": "uint8"
            },
            {
              "internalType": "string",
              "name": "additionalDetails",
              "type": "string"
            },
            {
              "internalType": "uint256",
              "name": "price",
              "type": "uint256"
            }
          ],
          "internalType": "struct RealEstateToken.RealEstateDetails[]",
          "name": "",
          "type": "tuple[]"
        },
        {
          "internalType": "string[]",
          "name": "",
          "type": "string[]"
        }
      ],
      "stateMutability": "view",
      "type": "function"
    },
    {
      "inputs": [
        {
          "internalType": "uint256",
          "name": "tokenId",
          "type": "uint256"
        }
      ],
      "name": "getToken",
      "outputs": [
        {
          "components": [
            {
              "internalType": "string",
              "name": "streetAddress",
              "type": "string"
            },
            {
              "internalType": "uint256",
              "name": "zipCode",
              "type": "uint256"
            },
            {
              "internalType": "string",
              "name": "city",
              "type": "string"
            },
            {
              "internalType": "string",
              "name": "propertyType",
              "type": "string"
            },
            {
              "internalType": "uint256",
              "name": "areaSquareMeters",
              "type": "uint256"
            },
            {
              "internalType": "uint8",
              "name": "bedrooms",
              "type": "uint8"
            },
            {
              "internalType": "uint8",
              "name": "bathrooms",
              "type": "uint8"
            },
            {
              "internalType": "string",
              "name": "additionalDetails",
              "type": "string"
            },
            {
              "internalType": "uint256",
              "name": "price",
              "type": "uint256"
            }
          ],
          "internalType": "struct RealEstateToken.RealEstateDetails",
          "name": "",
          "type": "tuple"
        },
        {
          "internalType": "address",
          "name": "",
          "type": "address"
        },
        {
          "internalType": "string",
          "name": "",
          "type": "string"
        }
      ],
      "stateMutability": "view",
      "type": "function"
    },
    {
      "inputs": [
        {
          "internalType": "uint256",
          "name": "tokenId",
          "type": "uint256"
        }
      ],
      "name": "getTokenURI",
      "outputs": [
        {
          "internalType": "string",
          "name": "",
          "type": "string"
        }
      ],
      "stateMutability": "view",
      "type": "function"
    },
    {
      "inputs": [],
      "name": "getTokens",
      "outputs": [
        {
          "components": [
            {
              "internalType": "string",
              "name": "streetAddress",
              "type": "string"
            },
            {
              "internalType": "uint256",
              "name": "zipCode",
              "type": "uint256"
            },
            {
              "internalType": "string",
              "name": "city",
              "type": "string"
            },
            {
              "internalType": "string",
              "name": "propertyType",
              "type": "string"
            },
            {
              "internalType": "uint256",
              "name": "areaSquareMeters",
              "type": "uint256"
            },
            {
              "internalType": "uint8",
              "name": "bedrooms",
              "type": "uint8"
            },
            {
              "internalType": "uint8",
              "name": "bathrooms",
              "type": "uint8"
            },
            {
              "internalType": "string",
              "name": "additionalDetails",
              "type": "string"
            },
            {
              "internalType": "uint256",
              "name": "price",
              "type": "uint256"
            }
          ],
          "internalType": "struct RealEstateToken.RealEstateDetails[]",
          "name": "",
          "type": "tuple[]"
        },
        {
          "internalType": "address[]",
          "name": "",
          "type": "address[]"
        },
        {
          "internalType": "string[]",
          "name": "",
          "type": "string[]"
        }
      ],
      "stateMutability": "view",
      "type": "function"
    },
    {
      "inputs": [
        {
          "internalType": "address",
          "name": "owner",
          "type": "address"
        },
        {
          "internalType": "address",
          "name": "operator",
          "type": "address"
        }
      ],
      "name": "isApprovedForAll",
      "outputs": [
        {
          "internalType": "bool",
          "name": "",
          "type": "bool"
        }
      ],
      "stateMutability": "view",
      "type": "function"
    },
    {
      "inputs": [
        {
          "components": [
            {
              "internalType": "string",
              "name": "streetAddress",
              "type": "string"
            },
            {
              "internalType": "uint256",
              "name": "zipCode",
              "type": "uint256"
            },
            {
              "internalType": "string",
              "name": "city",
              "type": "string"
            },
            {
              "internalType": "string",
              "name": "propertyType",
              "type": "string"
            },
            {
              "internalType": "uint256",
              "name": "areaSquareMeters",
              "type": "uint256"
            },
            {
              "internalType": "uint8",
              "name": "bedrooms",
              "type": "uint8"
            },
            {
              "internalType": "uint8",
              "name": "bathrooms",
              "type": "uint8"
            },
            {
              "internalType": "string",
              "name": "additionalDetails",
              "type": "string"
            },
            {
              "internalType": "uint256",
              "name": "price",
              "type": "uint256"
            }
          ],
          "internalType": "struct RealEstateToken.RealEstateDetails",
          "name": "details",
          "type": "tuple"
        },
        {
          "internalType": "string",
          "name": "tokenUri",
          "type": "string"
        }
      ],
      "name": "mint",
      "outputs": [],
      "stateMutability": "nonpayable",
      "type": "function"
    },
    {
      "inputs": [],
      "name": "name",
      "outputs": [
        {
          "internalType": "string",
          "name": "",
          "type": "string"
        }
      ],
      "stateMutability": "view",
      "type": "function"
    },
    {
      "inputs": [],
      "name": "nextTokenId",
      "outputs": [
        {
          "internalType": "uint256",
          "name": "",
          "type": "uint256"
        }
      ],
      "stateMutability": "view",
      "type": "function"
    },
    {
      "inputs": [],
      "name": "owner",
      "outputs": [
        {
          "internalType": "address",
          "name": "",
          "type": "address"
        }
      ],
      "stateMutability": "view",
      "type": "function"
    },
    {
      "inputs": [
        {
          "internalType": "uint256",
          "name": "tokenId",
          "type": "uint256"
        }
      ],
      "name": "ownerOf",
      "outputs": [
        {
          "internalType": "address",
          "name": "",
          "type": "address"
        }
      ],
      "stateMutability": "view",
      "type": "function"
    },
    {
      "inputs": [
        {
          "internalType": "uint256",
          "name": "tokenId",
          "type": "uint256"
        }
      ],
      "name": "purchaseToken",
      "outputs": [],
      "stateMutability": "payable",
      "type": "function"
    },
    {
      "inputs": [],
      "name": "renounceOwnership",
      "outputs": [],
      "stateMutability": "nonpayable",
      "type": "function"
    },
    {
      "inputs": [
        {
          "internalType": "address",
          "name": "from",
          "type": "address"
        },
        {
          "internalType": "address",
          "name": "to",
          "type": "address"
        },
        {
          "internalType": "uint256",
          "name": "tokenId",
          "type": "uint256"
        }
      ],
      "name": "safeTransferFrom",
      "outputs": [],
      "stateMutability": "nonpayable",
      "type": "function"
    },
    {
      "inputs": [
        {
          "internalType": "address",
          "name": "from",
          "type": "address"
        },
        {
          "internalType": "address",
          "name": "to",
          "type": "address"
        },
        {
          "internalType": "uint256",
          "name": "tokenId",
          "type": "uint256"
        },
        {
          "internalType": "bytes",
          "name": "data",
          "type": "bytes"
        }
      ],
      "name": "safeTransferFrom",
      "outputs": [],
      "stateMutability": "nonpayable",
      "type": "function"
    },
    {
      "inputs": [
        {
          "internalType": "address",
          "name": "operator",
          "type": "address"
        },
        {
          "internalType": "bool",
          "name": "approved",
          "type": "bool"
        }
      ],
      "name": "setApprovalForAll",
      "outputs": [],
      "stateMutability": "nonpayable",
      "type": "function"
    },
    {
      "inputs": [
        {
          "internalType": "uint256",
          "name": "tokenId",
          "type": "uint256"
        },
        {
          "internalType": "uint256",
          "name": "price",
          "type": "uint256"
        }
      ],
      "name": "setTokenPrice",
      "outputs": [],
      "stateMutability": "nonpayable",
      "type": "function"
    },
    {
      "inputs": [
        {
          "internalType": "bytes4",
          "name": "interfaceId",
          "type": "bytes4"
        }
      ],
      "name": "supportsInterface",
      "outputs": [
        {
          "internalType": "bool",
          "name": "",
          "type": "bool"
        }
      ],
      "stateMutability": "view",
      "type": "function"
    },
    {
      "inputs": [],
      "name": "symbol",
      "outputs": [
        {
          "internalType": "string",
          "name": "",
          "type": "string"
        }
      ],
      "stateMutability": "view",
      "type": "function"
    },
    {
      "inputs": [
        {
          "internalType": "uint256",
          "name": "tokenId",
          "type": "uint256"
        }
      ],
      "name": "tokenURI",
      "outputs": [
        {
          "internalType": "string",
          "name": "",
          "type": "string"
        }
      ],
      "stateMutability": "view",
      "type": "function"
    },
    {
      "inputs": [
        {
          "internalType": "address",
          "name": "from",
          "type": "address"
        },
        {
          "internalType": "address",
          "name": "to",
          "type": "address"
        },
        {
          "internalType": "uint256",
          "name": "tokenId",
          "type": "uint256"
        }
      ],
      "name": "transferFrom",
      "outputs": [],
      "stateMutability": "nonpayable",
      "type": "function"
    },
    {
      "inputs": [
        {
          "internalType": "address",
          "name": "newOwner",
          "type": "address"
        }
      ],
      "name": "transferOwnership",
      "outputs": [],
      "stateMutability": "nonpayable",
      "type": "function"
    }
  ],
  "bytecode": "0x608060405260006007553480156200001657600080fd5b50336040518060400160405280600f81526020017f5265616c457374617465546f6b656e00000000000000000000000000000000008152506040518060400160405280600381526020017f5245540000000000000000000000000000000000000000000000000000000000815250816000908162000095919062000477565b508060019081620000a7919062000477565b505050600073ffffffffffffffffffffffffffffffffffffffff168173ffffffffffffffffffffffffffffffffffffffff16036200011f5760006040517f1e4fbdf7000000000000000000000000000000000000000000000000000000008152600401620001169190620005a3565b60405180910390fd5b62000130816200013760201b60201c565b50620005c0565b6000600660009054906101000a900473ffffffffffffffffffffffffffffffffffffffff16905081600660006101000a81548173ffffffffffffffffffffffffffffffffffffffff021916908373ffffffffffffffffffffffffffffffffffffffff1602179055508173ffffffffffffffffffffffffffffffffffffffff168173ffffffffffffffffffffffffffffffffffffffff167f8be0079c531659141344cd1fd0a4f28419497f9722a3daafe3b4186f6b6457e060405160405180910390a35050565b600081519050919050565b7f4e487b7100000000000000000000000000000000000000000000000000000000600052604160045260246000fd5b7f4e487b7100000000000000000000000000000000000000000000000000000000600052602260045260246000fd5b600060028204905060018216806200027f57607f821691505b60208210810362000295576200029462000237565b5b50919050565b60008190508160005260206000209050919050565b60006020601f8301049050919050565b600082821b905092915050565b600060088302620002ff7fffffffffffffffffffffffffffffffffffffffffffffffffffffffffffffffff82620002c0565b6200030b8683620002c0565b95508019841693508086168417925050509392505050565b6000819050919050565b6000819050919050565b600062000358620003526200034c8462000323565b6200032d565b62000323565b9050919050565b6000819050919050565b620003748362000337565b6200038c62000383826200035f565b848454620002cd565b825550505050565b600090565b620003a362000394565b620003b081848462000369565b505050565b5b81811015620003d857620003cc60008262000399565b600181019050620003b6565b5050565b601f8211156200042757620003f1816200029b565b620003fc84620002b0565b810160208510156200040c578190505b620004246200041b85620002b0565b830182620003b5565b50505b505050565b600082821c905092915050565b60006200044c600019846008026200042c565b1980831691505092915050565b600062000467838362000439565b9150826002028217905092915050565b6200048282620001fd565b67ffffffffffffffff8111156200049e576200049d62000208565b5b620004aa825462000266565b620004b7828285620003dc565b600060209050601f831160018114620004ef5760008415620004da578287015190505b620004e6858262000459565b86555062000556565b601f198416620004ff866200029b565b60005b82811015620005295784890151825560018201915060208501945060208101905062000502565b8683101562000549578489015162000545601f89168262000439565b8355505b6001600288020188555050505b505050505050565b600073ffffffffffffffffffffffffffffffffffffffff82169050919050565b60006200058b826200055e565b9050919050565b6200059d816200057e565b82525050565b6000602082019050620005ba600083018462000592565b92915050565b61454180620005d06000396000f3fe60806040526004361061014b5760003560e01c806395d89b41116100b6578063dbb2205c1161006f578063dbb2205c14610497578063e4b50cb8146104c3578063e694c92214610502578063e985e9c51461052b578063eb685c4714610568578063f2fde38b146105915761014b565b806395d89b4114610394578063a22cb465146103bf578063aa6ca808146103e8578063b88d4fde14610415578063c2db2c421461043e578063c87b56dd1461045a5761014b565b806342842e0e1161010857806342842e0e146102845780636352211e146102ad57806370a08231146102ea578063715018a61461032757806375794a3c1461033e5780638da5cb5b146103695761014b565b806301ffc9a71461015057806306fdde031461018d578063081812fc146101b8578063095ea7b3146101f557806323b872dd1461021e5780633bb3a24d14610247575b600080fd5b34801561015c57600080fd5b5061017760048036038101906101729190612f8d565b6105ba565b6040516101849190612fd5565b60405180910390f35b34801561019957600080fd5b506101a261069c565b6040516101af9190613080565b60405180910390f35b3480156101c457600080fd5b506101df60048036038101906101da91906130d8565b61072e565b6040516101ec9190613146565b60405180910390f35b34801561020157600080fd5b5061021c6004803603810190610217919061318d565b61074a565b005b34801561022a57600080fd5b50610245600480360381019061024091906131cd565b610760565b005b34801561025357600080fd5b5061026e600480360381019061026991906130d8565b610862565b60405161027b9190613080565b60405180910390f35b34801561029057600080fd5b506102ab60048036038101906102a691906131cd565b61097e565b005b3480156102b957600080fd5b506102d460048036038101906102cf91906130d8565b61099e565b6040516102e19190613146565b60405180910390f35b3480156102f657600080fd5b50610311600480360381019061030c9190613220565b6109b0565b60405161031e919061325c565b60405180910390f35b34801561033357600080fd5b5061033c610a6a565b005b34801561034a57600080fd5b50610353610a7e565b604051610360919061325c565b60405180910390f35b34801561037557600080fd5b5061037e610a84565b60405161038b9190613146565b60405180910390f35b3480156103a057600080fd5b506103a9610aae565b6040516103b69190613080565b60405180910390f35b3480156103cb57600080fd5b506103e660048036038101906103e191906132a3565b610b40565b005b3480156103f457600080fd5b506103fd610b56565b60405161040c93929190613674565b60405180910390f35b34801561042157600080fd5b5061043c600480360381019061043791906137f5565b611077565b005b610458600480360381019061045391906130d8565b611094565b005b34801561046657600080fd5b50610481600480360381019061047c91906130d8565b611201565b60405161048e9190613080565b60405180910390f35b3480156104a357600080fd5b506104ac61126a565b6040516104ba929190613878565b60405180910390f35b3480156104cf57600080fd5b506104ea60048036038101906104e591906130d8565b611795565b6040516104f993929190613989565b60405180910390f35b34801561050e57600080fd5b5061052960048036038101906105249190613bf5565b611b8f565b005b34801561053757600080fd5b50610552600480360381019061054d9190613c6d565b611ceb565b60405161055f9190612fd5565b60405180910390f35b34801561057457600080fd5b5061058f600480360381019061058a9190613cad565b611d7f565b005b34801561059d57600080fd5b506105b860048036038101906105b39190613220565b611e14565b005b60007f80ac58cd000000000000000000000000000000000000000000000000000000007bffffffffffffffffffffffffffffffffffffffffffffffffffffffff1916827bffffffffffffffffffffffffffffffffffffffffffffffffffffffff1916148061068557507f5b5e139f000000000000000000000000000000000000000000000000000000007bffffffffffffffffffffffffffffffffffffffffffffffffffffffff1916827bffffffffffffffffffffffffffffffffffffffffffffffffffffffff1916145b80610695575061069482611e9a565b5b9050919050565b6060600080546106ab90613d1c565b80601f01602080910402602001604051908101604052809291908181526020018280546106d790613d1c565b80156107245780601f106106f957610100808354040283529160200191610724565b820191906000526020600020905b81548152906001019060200180831161070757829003601f168201915b5050505050905090565b600061073982611f04565b5061074382611f8c565b9050919050565b61075c8282610757611fc9565b611fd1565b5050565b600073ffffffffffffffffffffffffffffffffffffffff168273ffffffffffffffffffffffffffffffffffffffff16036107d25760006040517f64a0ae920000000000000000000000000000000000000000000000000000000081526004016107c99190613146565b60405180910390fd5b60006107e683836107e1611fc9565b611fe3565b90508373ffffffffffffffffffffffffffffffffffffffff168173ffffffffffffffffffffffffffffffffffffffff161461085c578382826040517f64283d7b00000000000000000000000000000000000000000000000000000000815260040161085393929190613d4d565b60405180910390fd5b50505050565b6060600073ffffffffffffffffffffffffffffffffffffffff166108858361099e565b73ffffffffffffffffffffffffffffffffffffffff16036108db576040517f08c379a00000000000000000000000000000000000000000000000000000000081526004016108d290613df6565b60405180910390fd5b6009600083815260200190815260200160002080546108f990613d1c565b80601f016020809104026020016040519081016040528092919081815260200182805461092590613d1c565b80156109725780601f1061094757610100808354040283529160200191610972565b820191906000526020600020905b81548152906001019060200180831161095557829003601f168201915b50505050509050919050565b61099983838360405180602001604052806000815250611077565b505050565b60006109a982611f04565b9050919050565b60008073ffffffffffffffffffffffffffffffffffffffff168273ffffffffffffffffffffffffffffffffffffffff1603610a235760006040517f89c62b64000000000000000000000000000000000000000000000000000000008152600401610a1a9190613146565b60405180910390fd5b600360008373ffffffffffffffffffffffffffffffffffffffff1673ffffffffffffffffffffffffffffffffffffffff168152602001908152602001600020549050919050565b610a726121fd565b610a7c6000612284565b565b60075481565b6000600660009054906101000a900473ffffffffffffffffffffffffffffffffffffffff16905090565b606060018054610abd90613d1c565b80601f0160208091040260200160405190810160405280929190818152602001828054610ae990613d1c565b8015610b365780601f10610b0b57610100808354040283529160200191610b36565b820191906000526020600020905b815481529060010190602001808311610b1957829003601f168201915b5050505050905090565b610b52610b4b611fc9565b838361234a565b5050565b6060806060600060075467ffffffffffffffff811115610b7957610b786136ca565b5b604051908082528060200260200182016040528015610bb257816020015b610b9f612ecf565b815260200190600190039081610b975790505b509050600060075467ffffffffffffffff811115610bd357610bd26136ca565b5b604051908082528060200260200182016040528015610c015781602001602082028036833780820191505090505b509050600060075467ffffffffffffffff811115610c2257610c216136ca565b5b604051908082528060200260200182016040528015610c5557816020015b6060815260200190600190039081610c405790505b50905060005b6007548110156110655760006008600083815260200190815260200160002090508060405180610120016040529081600082018054610c9990613d1c565b80601f0160208091040260200160405190810160405280929190818152602001828054610cc590613d1c565b8015610d125780601f10610ce757610100808354040283529160200191610d12565b820191906000526020600020905b815481529060010190602001808311610cf557829003601f168201915b5050505050815260200160018201548152602001600282018054610d3590613d1c565b80601f0160208091040260200160405190810160405280929190818152602001828054610d6190613d1c565b8015610dae5780601f10610d8357610100808354040283529160200191610dae565b820191906000526020600020905b815481529060010190602001808311610d9157829003601f168201915b50505050508152602001600382018054610dc790613d1c565b80601f0160208091040260200160405190810160405280929190818152602001828054610df390613d1c565b8015610e405780601f10610e1557610100808354040283529160200191610e40565b820191906000526020600020905b815481529060010190602001808311610e2357829003601f168201915b50505050508152602001600482015481526020016005820160009054906101000a900460ff1660ff1660ff1681526020016005820160019054906101000a900460ff1660ff1660ff168152602001600682018054610e9d90613d1c565b80601f0160208091040260200160405190810160405280929190818152602001828054610ec990613d1c565b8015610f165780601f10610eeb57610100808354040283529160200191610f16565b820191906000526020600020905b815481529060010190602001808311610ef957829003601f168201915b50505050508152602001600782015481525050858381518110610f3c57610f3b613e16565b5b6020026020010181905250610f508261099e565b848381518110610f6357610f62613e16565b5b602002602001019073ffffffffffffffffffffffffffffffffffffffff16908173ffffffffffffffffffffffffffffffffffffffff1681525050600960008381526020019081526020016000208054610fbb90613d1c565b80601f0160208091040260200160405190810160405280929190818152602001828054610fe790613d1c565b80156110345780601f1061100957610100808354040283529160200191611034565b820191906000526020600020905b81548152906001019060200180831161101757829003601f168201915b505050505083838151811061104c5761104b613e16565b5b6020026020010181905250508080600101915050610c5b565b50828282955095509550505050909192565b611082848484610760565b61108e848484846124b9565b50505050565b60006008600083815260200190815260200160002060070154905060006110ba8361099e565b9050600073ffffffffffffffffffffffffffffffffffffffff168173ffffffffffffffffffffffffffffffffffffffff160361112b576040517f08c379a000000000000000000000000000000000000000000000000000000000815260040161112290613e91565b60405180910390fd5b81341461116d576040517f08c379a000000000000000000000000000000000000000000000000000000000815260040161116490613efd565b60405180910390fd5b611178813385612670565b8073ffffffffffffffffffffffffffffffffffffffff166108fc349081150290604051600060405180830381858888f193505050501580156111be573d6000803e3d6000fd5b507f704cf6cb1221490022185412a0f82fd80ca9ccf7b5f84482727d0f6924265bd8838233856040516111f49493929190613f1d565b60405180910390a1505050565b606061120c82611f04565b5060006112176127dd565b905060008151116112375760405180602001604052806000815250611262565b80611241846127f4565b604051602001611252929190613f9e565b6040516020818303038152906040525b915050919050565b6060806000805b6007548110156112d2573373ffffffffffffffffffffffffffffffffffffffff1661129b8261099e565b73ffffffffffffffffffffffffffffffffffffffff16036112c55781806112c190613ff1565b9250505b8080600101915050611271565b5060008167ffffffffffffffff8111156112ef576112ee6136ca565b5b60405190808252806020026020018201604052801561132857816020015b611315612ecf565b81526020019060019003908161130d5790505b50905060008267ffffffffffffffff811115611347576113466136ca565b5b60405190808252806020026020018201604052801561137a57816020015b60608152602001906001900390816113655790505b5090506000805b600754811015611786573373ffffffffffffffffffffffffffffffffffffffff166113ab8261099e565b73ffffffffffffffffffffffffffffffffffffffff16036117795760006008600083815260200190815260200160002090506000600960008481526020019081526020016000209050816040518061012001604052908160008201805461141190613d1c565b80601f016020809104026020016040519081016040528092919081815260200182805461143d90613d1c565b801561148a5780601f1061145f5761010080835404028352916020019161148a565b820191906000526020600020905b81548152906001019060200180831161146d57829003601f168201915b50505050508152602001600182015481526020016002820180546114ad90613d1c565b80601f01602080910402602001604051908101604052809291908181526020018280546114d990613d1c565b80156115265780601f106114fb57610100808354040283529160200191611526565b820191906000526020600020905b81548152906001019060200180831161150957829003601f168201915b5050505050815260200160038201805461153f90613d1c565b80601f016020809104026020016040519081016040528092919081815260200182805461156b90613d1c565b80156115b85780601f1061158d576101008083540402835291602001916115b8565b820191906000526020600020905b81548152906001019060200180831161159b57829003601f168201915b50505050508152602001600482015481526020016005820160009054906101000a900460ff1660ff1660ff1681526020016005820160019054906101000a900460ff1660ff1660ff16815260200160068201805461161590613d1c565b80601f016020809104026020016040519081016040528092919081815260200182805461164190613d1c565b801561168e5780601f106116635761010080835404028352916020019161168e565b820191906000526020600020905b81548152906001019060200180831161167157829003601f168201915b505050505081526020016007820154815250508685815181106116b4576116b3613e16565b5b60200260200101819052508080546116cb90613d1c565b80601f01602080910402602001604051908101604052809291908181526020018280546116f790613d1c565b80156117445780601f1061171957610100808354040283529160200191611744565b820191906000526020600020905b81548152906001019060200180831161172757829003601f168201915b505050505085858151811061175c5761175b613e16565b5b60200260200101819052506001846117749190614039565b935050505b8080600101915050611381565b50828295509550505050509091565b61179d612ecf565b60006060600073ffffffffffffffffffffffffffffffffffffffff166117c28561099e565b73ffffffffffffffffffffffffffffffffffffffff1603611818576040517f08c379a000000000000000000000000000000000000000000000000000000000815260040161180f90613df6565b60405180910390fd5b600860008581526020019081526020016000206118348561099e565b60096000878152602001908152602001600020826040518061012001604052908160008201805461186490613d1c565b80601f016020809104026020016040519081016040528092919081815260200182805461189090613d1c565b80156118dd5780601f106118b2576101008083540402835291602001916118dd565b820191906000526020600020905b8154815290600101906020018083116118c057829003601f168201915b505050505081526020016001820154815260200160028201805461190090613d1c565b80601f016020809104026020016040519081016040528092919081815260200182805461192c90613d1c565b80156119795780601f1061194e57610100808354040283529160200191611979565b820191906000526020600020905b81548152906001019060200180831161195c57829003601f168201915b5050505050815260200160038201805461199290613d1c565b80601f01602080910402602001604051908101604052809291908181526020018280546119be90613d1c565b8015611a0b5780601f106119e057610100808354040283529160200191611a0b565b820191906000526020600020905b8154815290600101906020018083116119ee57829003601f168201915b50505050508152602001600482015481526020016005820160009054906101000a900460ff1660ff1660ff1681526020016005820160019054906101000a900460ff1660ff1660ff168152602001600682018054611a6890613d1c565b80601f0160208091040260200160405190810160405280929190818152602001828054611a9490613d1c565b8015611ae15780601f10611ab657610100808354040283529160200191611ae1565b820191906000526020600020905b815481529060010190602001808311611ac457829003601f168201915b505050505081526020016007820154815250509250808054611b0290613d1c565b80601f0160208091040260200160405190810160405280929190818152602001828054611b2e90613d1c565b8015611b7b5780601f10611b5057610100808354040283529160200191611b7b565b820191906000526020600020905b815481529060010190602001808311611b5e57829003601f168201915b505050505090509250925092509193909250565b60006007549050611ba033826128c2565b82600860008381526020019081526020016000206000820151816000019081611bc99190614219565b50602082015181600101556040820151816002019081611be99190614219565b506060820151816003019081611bff9190614219565b506080820151816004015560a08201518160050160006101000a81548160ff021916908360ff16021790555060c08201518160050160016101000a81548160ff021916908360ff16021790555060e0820151816006019081611c619190614219565b50610100820151816007015590505081600960008381526020019081526020016000209081611c909190614219565b5060076000815480929190611ca490613ff1565b91905055507fd5e85b198634d5dbfc09b96c0334b3db6bc91cdfcb01350b02db916dbb23e16581338585604051611cde94939291906142eb565b60405180910390a1505050565b6000600560008473ffffffffffffffffffffffffffffffffffffffff1673ffffffffffffffffffffffffffffffffffffffff16815260200190815260200160002060008373ffffffffffffffffffffffffffffffffffffffff1673ffffffffffffffffffffffffffffffffffffffff16815260200190815260200160002060009054906101000a900460ff16905092915050565b3373ffffffffffffffffffffffffffffffffffffffff16611d9f8361099e565b73ffffffffffffffffffffffffffffffffffffffff1614611df5576040517f08c379a0000000000000000000000000000000000000000000000000000000008152600401611dec906143b0565b60405180910390fd5b8060086000848152602001908152602001600020600701819055505050565b611e1c6121fd565b600073ffffffffffffffffffffffffffffffffffffffff168173ffffffffffffffffffffffffffffffffffffffff1603611e8e5760006040517f1e4fbdf7000000000000000000000000000000000000000000000000000000008152600401611e859190613146565b60405180910390fd5b611e9781612284565b50565b60007f01ffc9a7000000000000000000000000000000000000000000000000000000007bffffffffffffffffffffffffffffffffffffffffffffffffffffffff1916827bffffffffffffffffffffffffffffffffffffffffffffffffffffffff1916149050919050565b600080611f10836128e0565b9050600073ffffffffffffffffffffffffffffffffffffffff168173ffffffffffffffffffffffffffffffffffffffff1603611f8357826040517f7e273289000000000000000000000000000000000000000000000000000000008152600401611f7a919061325c565b60405180910390fd5b80915050919050565b60006004600083815260200190815260200160002060009054906101000a900473ffffffffffffffffffffffffffffffffffffffff169050919050565b600033905090565b611fde838383600161291d565b505050565b600080611fef846128e0565b9050600073ffffffffffffffffffffffffffffffffffffffff168373ffffffffffffffffffffffffffffffffffffffff161461203157612030818486612ae2565b5b600073ffffffffffffffffffffffffffffffffffffffff168173ffffffffffffffffffffffffffffffffffffffff16146120c25761207360008560008061291d565b6001600360008373ffffffffffffffffffffffffffffffffffffffff1673ffffffffffffffffffffffffffffffffffffffff168152602001908152602001600020600082825403925050819055505b600073ffffffffffffffffffffffffffffffffffffffff168573ffffffffffffffffffffffffffffffffffffffff1614612145576001600360008773ffffffffffffffffffffffffffffffffffffffff1673ffffffffffffffffffffffffffffffffffffffff168152602001908152602001600020600082825401925050819055505b846002600086815260200190815260200160002060006101000a81548173ffffffffffffffffffffffffffffffffffffffff021916908373ffffffffffffffffffffffffffffffffffffffff160217905550838573ffffffffffffffffffffffffffffffffffffffff168273ffffffffffffffffffffffffffffffffffffffff167fddf252ad1be2c89b69c2b068fc378daa952ba7f163c4a11628f55a4df523b3ef60405160405180910390a4809150509392505050565b612205611fc9565b73ffffffffffffffffffffffffffffffffffffffff16612223610a84565b73ffffffffffffffffffffffffffffffffffffffff161461228257612246611fc9565b6040517f118cdaa70000000000000000000000000000000000000000000000000000000081526004016122799190613146565b60405180910390fd5b565b6000600660009054906101000a900473ffffffffffffffffffffffffffffffffffffffff16905081600660006101000a81548173ffffffffffffffffffffffffffffffffffffffff021916908373ffffffffffffffffffffffffffffffffffffffff1602179055508173ffffffffffffffffffffffffffffffffffffffff168173ffffffffffffffffffffffffffffffffffffffff167f8be0079c531659141344cd1fd0a4f28419497f9722a3daafe3b4186f6b6457e060405160405180910390a35050565b600073ffffffffffffffffffffffffffffffffffffffff168273ffffffffffffffffffffffffffffffffffffffff16036123bb57816040517f5b08ba180000000000000000000000000000000000000000000000000000000081526004016123b29190613146565b60405180910390fd5b80600560008573ffffffffffffffffffffffffffffffffffffffff1673ffffffffffffffffffffffffffffffffffffffff16815260200190815260200160002060008473ffffffffffffffffffffffffffffffffffffffff1673ffffffffffffffffffffffffffffffffffffffff16815260200190815260200160002060006101000a81548160ff0219169083151502179055508173ffffffffffffffffffffffffffffffffffffffff168373ffffffffffffffffffffffffffffffffffffffff167f17307eab39ab6107e8899845ad3d59bd9653f200f220920489ca2b5937696c31836040516124ac9190612fd5565b60405180910390a3505050565b60008373ffffffffffffffffffffffffffffffffffffffff163b111561266a578273ffffffffffffffffffffffffffffffffffffffff1663150b7a026124fd611fc9565b8685856040518563ffffffff1660e01b815260040161251f9493929190614425565b6020604051808303816000875af192505050801561255b57506040513d601f19601f820116820180604052508101906125589190614486565b60015b6125df573d806000811461258b576040519150601f19603f3d011682016040523d82523d6000602084013e612590565b606091505b5060008151036125d757836040517f64a0ae920000000000000000000000000000000000000000000000000000000081526004016125ce9190613146565b60405180910390fd5b805181602001fd5b63150b7a0260e01b7bffffffffffffffffffffffffffffffffffffffffffffffffffffffff1916817bffffffffffffffffffffffffffffffffffffffffffffffffffffffff19161461266857836040517f64a0ae9200000000000000000000000000000000000000000000000000000000815260040161265f9190613146565b60405180910390fd5b505b50505050565b600073ffffffffffffffffffffffffffffffffffffffff168273ffffffffffffffffffffffffffffffffffffffff16036126e25760006040517f64a0ae920000000000000000000000000000000000000000000000000000000081526004016126d99190613146565b60405180910390fd5b60006126f083836000611fe3565b9050600073ffffffffffffffffffffffffffffffffffffffff168173ffffffffffffffffffffffffffffffffffffffff160361276357816040517f7e27328900000000000000000000000000000000000000000000000000000000815260040161275a919061325c565b60405180910390fd5b8373ffffffffffffffffffffffffffffffffffffffff168173ffffffffffffffffffffffffffffffffffffffff16146127d7578382826040517f64283d7b0000000000000000000000000000000000000000000000000000000081526004016127ce93929190613d4d565b60405180910390fd5b50505050565b606060405180602001604052806000815250905090565b60606000600161280384612ba6565b01905060008167ffffffffffffffff811115612822576128216136ca565b5b6040519080825280601f01601f1916602001820160405280156128545781602001600182028036833780820191505090505b509050600082602001820190505b6001156128b7578080600190039150507f3031323334353637383961626364656600000000000000000000000000000000600a86061a8153600a85816128ab576128aa6144b3565b5b04945060008503612862575b819350505050919050565b6128dc828260405180602001604052806000815250612cf9565b5050565b60006002600083815260200190815260200160002060009054906101000a900473ffffffffffffffffffffffffffffffffffffffff169050919050565b80806129565750600073ffffffffffffffffffffffffffffffffffffffff168273ffffffffffffffffffffffffffffffffffffffff1614155b15612a8a57600061296684611f04565b9050600073ffffffffffffffffffffffffffffffffffffffff168373ffffffffffffffffffffffffffffffffffffffff16141580156129d157508273ffffffffffffffffffffffffffffffffffffffff168173ffffffffffffffffffffffffffffffffffffffff1614155b80156129e457506129e28184611ceb565b155b15612a2657826040517fa9fbf51f000000000000000000000000000000000000000000000000000000008152600401612a1d9190613146565b60405180910390fd5b8115612a8857838573ffffffffffffffffffffffffffffffffffffffff168273ffffffffffffffffffffffffffffffffffffffff167f8c5be1e5ebec7d5bd14f71427d1e84f3dd0314c0f7b2291e5b200ac8c7c3b92560405160405180910390a45b505b836004600085815260200190815260200160002060006101000a81548173ffffffffffffffffffffffffffffffffffffffff021916908373ffffffffffffffffffffffffffffffffffffffff16021790555050505050565b612aed838383612d15565b612ba157600073ffffffffffffffffffffffffffffffffffffffff168373ffffffffffffffffffffffffffffffffffffffff1603612b6257806040517f7e273289000000000000000000000000000000000000000000000000000000008152600401612b59919061325c565b60405180910390fd5b81816040517f177e802f000000000000000000000000000000000000000000000000000000008152600401612b989291906144e2565b60405180910390fd5b505050565b600080600090507a184f03e93ff9f4daa797ed6e38ed64bf6a1f0100000000000000008310612c04577a184f03e93ff9f4daa797ed6e38ed64bf6a1f0100000000000000008381612bfa57612bf96144b3565b5b0492506040810190505b6d04ee2d6d415b85acef81000000008310612c41576d04ee2d6d415b85acef81000000008381612c3757612c366144b3565b5b0492506020810190505b662386f26fc100008310612c7057662386f26fc100008381612c6657612c656144b3565b5b0492506010810190505b6305f5e1008310612c99576305f5e1008381612c8f57612c8e6144b3565b5b0492506008810190505b6127108310612cbe576127108381612cb457612cb36144b3565b5b0492506004810190505b60648310612ce15760648381612cd757612cd66144b3565b5b0492506002810190505b600a8310612cf0576001810190505b80915050919050565b612d038383612dd6565b612d1060008484846124b9565b505050565b60008073ffffffffffffffffffffffffffffffffffffffff168373ffffffffffffffffffffffffffffffffffffffff1614158015612dcd57508273ffffffffffffffffffffffffffffffffffffffff168473ffffffffffffffffffffffffffffffffffffffff161480612d8e5750612d8d8484611ceb565b5b80612dcc57508273ffffffffffffffffffffffffffffffffffffffff16612db483611f8c565b73ffffffffffffffffffffffffffffffffffffffff16145b5b90509392505050565b600073ffffffffffffffffffffffffffffffffffffffff168273ffffffffffffffffffffffffffffffffffffffff1603612e485760006040517f64a0ae92000000000000000000000000000000000000000000000000000000008152600401612e3f9190613146565b60405180910390fd5b6000612e5683836000611fe3565b9050600073ffffffffffffffffffffffffffffffffffffffff168173ffffffffffffffffffffffffffffffffffffffff1614612eca5760006040517f73c6ac6e000000000000000000000000000000000000000000000000000000008152600401612ec19190613146565b60405180910390fd5b505050565b6040518061012001604052806060815260200160008152602001606081526020016060815260200160008152602001600060ff168152602001600060ff16815260200160608152602001600081525090565b6000604051905090565b600080fd5b600080fd5b60007fffffffff0000000000000000000000000000000000000000000000000000000082169050919050565b612f6a81612f35565b8114612f7557600080fd5b50565b600081359050612f8781612f61565b92915050565b600060208284031215612fa357612fa2612f2b565b5b6000612fb184828501612f78565b91505092915050565b60008115159050919050565b612fcf81612fba565b82525050565b6000602082019050612fea6000830184612fc6565b92915050565b600081519050919050565b600082825260208201905092915050565b60005b8381101561302a57808201518184015260208101905061300f565b60008484015250505050565b6000601f19601f8301169050919050565b600061305282612ff0565b61305c8185612ffb565b935061306c81856020860161300c565b61307581613036565b840191505092915050565b6000602082019050818103600083015261309a8184613047565b905092915050565b6000819050919050565b6130b5816130a2565b81146130c057600080fd5b50565b6000813590506130d2816130ac565b92915050565b6000602082840312156130ee576130ed612f2b565b5b60006130fc848285016130c3565b91505092915050565b600073ffffffffffffffffffffffffffffffffffffffff82169050919050565b600061313082613105565b9050919050565b61314081613125565b82525050565b600060208201905061315b6000830184613137565b92915050565b61316a81613125565b811461317557600080fd5b50565b60008135905061318781613161565b92915050565b600080604083850312156131a4576131a3612f2b565b5b60006131b285828601613178565b92505060206131c3858286016130c3565b9150509250929050565b6000806000606084860312156131e6576131e5612f2b565b5b60006131f486828701613178565b935050602061320586828701613178565b9250506040613216868287016130c3565b9150509250925092565b60006020828403121561323657613235612f2b565b5b600061324484828501613178565b91505092915050565b613256816130a2565b82525050565b6000602082019050613271600083018461324d565b92915050565b61328081612fba565b811461328b57600080fd5b50565b60008135905061329d81613277565b92915050565b600080604083850312156132ba576132b9612f2b565b5b60006132c885828601613178565b92505060206132d98582860161328e565b9150509250929050565b600081519050919050565b600082825260208201905092915050565b6000819050602082019050919050565b600082825260208201905092915050565b600061332b82612ff0565b613335818561330f565b935061334581856020860161300c565b61334e81613036565b840191505092915050565b613362816130a2565b82525050565b600060ff82169050919050565b61337e81613368565b82525050565b60006101208301600083015184820360008601526133a28282613320565b91505060208301516133b76020860182613359565b50604083015184820360408601526133cf8282613320565b915050606083015184820360608601526133e98282613320565b91505060808301516133fe6080860182613359565b5060a083015161341160a0860182613375565b5060c083015161342460c0860182613375565b5060e083015184820360e086015261343c8282613320565b915050610100830151613453610100860182613359565b508091505092915050565b600061346a8383613384565b905092915050565b6000602082019050919050565b600061348a826132e3565b61349481856132ee565b9350836020820285016134a6856132ff565b8060005b858110156134e257848403895281516134c3858261345e565b94506134ce83613472565b925060208a019950506001810190506134aa565b50829750879550505050505092915050565b600081519050919050565b600082825260208201905092915050565b6000819050602082019050919050565b61352981613125565b82525050565b600061353b8383613520565b60208301905092915050565b6000602082019050919050565b600061355f826134f4565b61356981856134ff565b935061357483613510565b8060005b838110156135a557815161358c888261352f565b975061359783613547565b925050600181019050613578565b5085935050505092915050565b600081519050919050565b600082825260208201905092915050565b6000819050602082019050919050565b60006135ea8383613320565b905092915050565b6000602082019050919050565b600061360a826135b2565b61361481856135bd565b935083602082028501613626856135ce565b8060005b85811015613662578484038952815161364385826135de565b945061364e836135f2565b925060208a0199505060018101905061362a565b50829750879550505050505092915050565b6000606082019050818103600083015261368e818661347f565b905081810360208301526136a28185613554565b905081810360408301526136b681846135ff565b9050949350505050565b600080fd5b600080fd5b7f4e487b7100000000000000000000000000000000000000000000000000000000600052604160045260246000fd5b61370282613036565b810181811067ffffffffffffffff82111715613721576137206136ca565b5b80604052505050565b6000613734612f21565b905061374082826136f9565b919050565b600067ffffffffffffffff8211156137605761375f6136ca565b5b61376982613036565b9050602081019050919050565b82818337600083830152505050565b600061379861379384613745565b61372a565b9050828152602081018484840111156137b4576137b36136c5565b5b6137bf848285613776565b509392505050565b600082601f8301126137dc576137db6136c0565b5b81356137ec848260208601613785565b91505092915050565b6000806000806080858703121561380f5761380e612f2b565b5b600061381d87828801613178565b945050602061382e87828801613178565b935050604061383f878288016130c3565b925050606085013567ffffffffffffffff8111156138605761385f612f30565b5b61386c878288016137c7565b91505092959194509250565b60006040820190508181036000830152613892818561347f565b905081810360208301526138a681846135ff565b90509392505050565b60006101208301600083015184820360008601526138cd8282613320565b91505060208301516138e26020860182613359565b50604083015184820360408601526138fa8282613320565b915050606083015184820360608601526139148282613320565b91505060808301516139296080860182613359565b5060a083015161393c60a0860182613375565b5060c083015161394f60c0860182613375565b5060e083015184820360e08601526139678282613320565b91505061010083015161397e610100860182613359565b508091505092915050565b600060608201905081810360008301526139a381866138af565b90506139b26020830185613137565b81810360408301526139c48184613047565b9050949350505050565b600080fd5b600080fd5b600067ffffffffffffffff8211156139f3576139f26136ca565b5b6139fc82613036565b9050602081019050919050565b6000613a1c613a17846139d8565b61372a565b905082815260208101848484011115613a3857613a376136c5565b5b613a43848285613776565b509392505050565b600082601f830112613a6057613a5f6136c0565b5b8135613a70848260208601613a09565b91505092915050565b613a8281613368565b8114613a8d57600080fd5b50565b600081359050613a9f81613a79565b92915050565b60006101208284031215613abc57613abb6139ce565b5b613ac761012061372a565b9050600082013567ffffffffffffffff811115613ae757613ae66139d3565b5b613af384828501613a4b565b6000830152506020613b07848285016130c3565b602083015250604082013567ffffffffffffffff811115613b2b57613b2a6139d3565b5b613b3784828501613a4b565b604083015250606082013567ffffffffffffffff811115613b5b57613b5a6139d3565b5b613b6784828501613a4b565b6060830152506080613b7b848285016130c3565b60808301525060a0613b8f84828501613a90565b60a08301525060c0613ba384828501613a90565b60c08301525060e082013567ffffffffffffffff811115613bc757613bc66139d3565b5b613bd384828501613a4b565b60e083015250610100613be8848285016130c3565b6101008301525092915050565b60008060408385031215613c0c57613c0b612f2b565b5b600083013567ffffffffffffffff811115613c2a57613c29612f30565b5b613c3685828601613aa5565b925050602083013567ffffffffffffffff811115613c5757613c56612f30565b5b613c6385828601613a4b565b9150509250929050565b60008060408385031215613c8457613c83612f2b565b5b6000613c9285828601613178565b9250506020613ca385828601613178565b9150509250929050565b60008060408385031215613cc457613cc3612f2b565b5b6000613cd2858286016130c3565b9250506020613ce3858286016130c3565b9150509250929050565b7f4e487b7100000000000000000000000000000000000000000000000000000000600052602260045260246000fd5b60006002820490506001821680613d3457607f821691505b602082108103613d4757613d46613ced565b5b50919050565b6000606082019050613d626000830186613137565b613d6f602083018561324d565b613d7c6040830184613137565b949350505050565b7f4552433732314d657461646174613a2044657461696c7320717565727920666f60008201527f72206e6f6e6578697374656e7420746f6b656e00000000000000000000000000602082015250565b6000613de0603383612ffb565b9150613deb82613d84565b604082019050919050565b60006020820190508181036000830152613e0f81613dd3565b9050919050565b7f4e487b7100000000000000000000000000000000000000000000000000000000600052603260045260246000fd5b7f4552433732313a20496e76616c6964206f776e65720000000000000000000000600082015250565b6000613e7b601583612ffb565b9150613e8682613e45565b602082019050919050565b60006020820190508181036000830152613eaa81613e6e565b9050919050565b7f4552433732313a20496e636f7272656374207072696365000000000000000000600082015250565b6000613ee7601783612ffb565b9150613ef282613eb1565b602082019050919050565b60006020820190508181036000830152613f1681613eda565b9050919050565b6000608082019050613f32600083018761324d565b613f3f6020830186613137565b613f4c6040830185613137565b613f59606083018461324d565b95945050505050565b600081905092915050565b6000613f7882612ff0565b613f828185613f62565b9350613f9281856020860161300c565b80840191505092915050565b6000613faa8285613f6d565b9150613fb68284613f6d565b91508190509392505050565b7f4e487b7100000000000000000000000000000000000000000000000000000000600052601160045260246000fd5b6000613ffc826130a2565b91507fffffffffffffffffffffffffffffffffffffffffffffffffffffffffffffffff820361402e5761402d613fc2565b5b600182019050919050565b6000614044826130a2565b915061404f836130a2565b925082820190508082111561406757614066613fc2565b5b92915050565b60008190508160005260206000209050919050565b60006020601f8301049050919050565b600082821b905092915050565b6000600883026140cf7fffffffffffffffffffffffffffffffffffffffffffffffffffffffffffffffff82614092565b6140d98683614092565b95508019841693508086168417925050509392505050565b6000819050919050565b600061411661411161410c846130a2565b6140f1565b6130a2565b9050919050565b6000819050919050565b614130836140fb565b61414461413c8261411d565b84845461409f565b825550505050565b600090565b61415961414c565b614164818484614127565b505050565b5b818110156141885761417d600082614151565b60018101905061416a565b5050565b601f8211156141cd5761419e8161406d565b6141a784614082565b810160208510156141b6578190505b6141ca6141c285614082565b830182614169565b50505b505050565b600082821c905092915050565b60006141f0600019846008026141d2565b1980831691505092915050565b600061420983836141df565b9150826002028217905092915050565b61422282612ff0565b67ffffffffffffffff81111561423b5761423a6136ca565b5b6142458254613d1c565b61425082828561418c565b600060209050601f8311600181146142835760008415614271578287015190505b61427b85826141fd565b8655506142e3565b601f1984166142918661406d565b60005b828110156142b957848901518255600182019150602085019450602081019050614294565b868310156142d657848901516142d2601f8916826141df565b8355505b6001600288020188555050505b505050505050565b6000608082019050614300600083018761324d565b61430d6020830186613137565b818103604083015261431f81856138af565b905081810360608301526143338184613047565b905095945050505050565b7f4552433732313a204f6e6c7920746865206f776e65722063616e20736574207460008201527f6865207072696365000000000000000000000000000000000000000000000000602082015250565b600061439a602883612ffb565b91506143a58261433e565b604082019050919050565b600060208201905081810360008301526143c98161438d565b9050919050565b600081519050919050565b600082825260208201905092915050565b60006143f7826143d0565b61440181856143db565b935061441181856020860161300c565b61441a81613036565b840191505092915050565b600060808201905061443a6000830187613137565b6144476020830186613137565b614454604083018561324d565b818103606083015261446681846143ec565b905095945050505050565b60008151905061448081612f61565b92915050565b60006020828403121561449c5761449b612f2b565b5b60006144aa84828501614471565b91505092915050565b7f4e487b7100000000000000000000000000000000000000000000000000000000600052601260045260246000fd5b60006040820190506144f76000830185613137565b614504602083018461324d565b939250505056fea264697066735822122055930f1b2faa021820da8a3b287c6c33bb73ba09026835bf9d8a69f0f3689c7d64736f6c63430008180033",
  "linkReferences": {},
  "deployedLinkReferences": {}
}